{
  "contractName": "SimpleTicket",
  "abi": [
    {
      "constant": true,
      "inputs": [],
      "name": "hash",
      "outputs": [
        {
          "name": "",
          "type": "bytes32"
        }
      ],
      "payable": false,
      "stateMutability": "view",
      "type": "function"
    },
    {
      "constant": true,
      "inputs": [],
      "name": "cost",
      "outputs": [
        {
          "name": "",
          "type": "uint256"
        }
      ],
      "payable": false,
      "stateMutability": "view",
      "type": "function"
    },
    {
      "constant": true,
      "inputs": [],
      "name": "Creator",
      "outputs": [
        {
          "name": "",
          "type": "address"
        }
      ],
      "payable": false,
      "stateMutability": "view",
      "type": "function"
    },
    {
      "constant": false,
      "inputs": [
        {
          "name": "a",
          "type": "address"
        },
        {
          "name": "key",
          "type": "uint256"
        }
      ],
      "name": "redeem",
      "outputs": [
        {
          "name": "",
          "type": "bool"
        }
      ],
      "payable": false,
      "stateMutability": "nonpayable",
      "type": "function"
    },
    {
      "constant": true,
      "inputs": [
        {
          "name": "user",
          "type": "address"
        },
        {
          "name": "i",
          "type": "uint256"
        }
      ],
      "name": "listKey",
      "outputs": [
        {
          "name": "key",
          "type": "uint256"
        }
      ],
      "payable": false,
      "stateMutability": "view",
      "type": "function"
    },
    {
      "constant": true,
      "inputs": [
        {
          "name": "a",
          "type": "address"
        },
        {
          "name": "i",
          "type": "uint256"
        }
      ],
      "name": "printTT",
      "outputs": [
        {
          "name": "",
          "type": "bytes32"
        },
        {
          "name": "",
          "type": "uint256"
        }
      ],
      "payable": false,
      "stateMutability": "view",
      "type": "function"
    },
    {
      "constant": true,
      "inputs": [],
      "name": "available",
      "outputs": [
        {
          "name": "",
          "type": "uint256"
        }
      ],
      "payable": false,
      "stateMutability": "view",
      "type": "function"
    },
    {
      "constant": true,
      "inputs": [
        {
          "name": "user",
          "type": "address"
        }
      ],
      "name": "listTickets",
      "outputs": [
        {
          "name": "n",
          "type": "uint256"
        }
      ],
      "payable": false,
      "stateMutability": "view",
      "type": "function"
    },
    {
      "constant": false,
      "inputs": [
        {
          "name": "number",
          "type": "uint256"
        }
      ],
      "name": "SendTicket",
      "outputs": [],
      "payable": true,
      "stateMutability": "payable",
      "type": "function"
    },
    {
      "constant": true,
      "inputs": [],
      "name": "redeemstart",
      "outputs": [
        {
          "name": "",
          "type": "uint256"
        }
      ],
      "payable": false,
      "stateMutability": "view",
      "type": "function"
    },
    {
      "constant": true,
      "inputs": [],
      "name": "start",
      "outputs": [
        {
          "name": "",
          "type": "uint256"
        }
      ],
      "payable": false,
      "stateMutability": "view",
      "type": "function"
    },
    {
      "constant": true,
      "inputs": [
        {
          "name": "key",
          "type": "uint256"
        }
      ],
      "name": "listowner",
      "outputs": [
        {
          "name": "",
          "type": "address"
        },
        {
          "name": "",
          "type": "bytes32"
        }
      ],
      "payable": false,
      "stateMutability": "view",
      "type": "function"
    },
    {
      "constant": true,
      "inputs": [],
      "name": "end",
      "outputs": [
        {
          "name": "",
          "type": "uint256"
        }
      ],
      "payable": false,
      "stateMutability": "view",
      "type": "function"
    },
    {
      "constant": true,
      "inputs": [],
      "name": "redeemby",
      "outputs": [
        {
          "name": "",
          "type": "uint256"
        }
      ],
      "payable": false,
      "stateMutability": "view",
      "type": "function"
    },
    {
      "inputs": [
        {
          "name": "s",
          "type": "uint256"
        },
        {
          "name": "e",
          "type": "uint256"
        },
        {
          "name": "rs",
          "type": "uint256"
        },
        {
          "name": "rb",
          "type": "uint256"
        },
        {
          "name": "c",
          "type": "uint256"
        },
        {
          "name": "number",
          "type": "uint256"
        }
      ],
      "payable": false,
      "stateMutability": "nonpayable",
      "type": "constructor"
    },
    {
      "anonymous": false,
      "inputs": [
        {
          "indexed": false,
          "name": "key",
          "type": "uint256"
        },
        {
          "indexed": false,
          "name": "hash",
          "type": "uint256"
        }
      ],
      "name": "Printed",
      "type": "event"
    }
  ],
  "bytecode": "0x6060604052341561000f57600080fd5b60405160c080610acb8339810160405280805190602001909190805190602001909190805190602001909190805190602001909190805190602001909190805190602001909190505062015180840242016004819055506201518083024201600381905550620151808602420160018190555062015180850242016002819055508160068190555033600560006101000a81548173ffffffffffffffffffffffffffffffffffffffff021916908373ffffffffffffffffffffffffffffffffffffffff16021790555080600081905550444142604051808481526020018373ffffffffffffffffffffffffffffffffffffffff1673ffffffffffffffffffffffffffffffffffffffff166c01000000000000000000000000028152601401828152602001935050505060405180910390206007816000191690555050505050505061096c8061015f6000396000f3006060604052600436106100d0576000357c0100000000000000000000000000000000000000000000000000000000900463ffffffff16806309bd5a60146100d557806313faede61461010657806318bee97e1461012f5780631e9a69501461018457806325b9574c146101de57806340ae25a11461023457806348a0d75414610299578063669e231e146102c25780637ab84cae1461030f578063a0e6729114610327578063be9a655514610350578063ee8c60fb14610379578063efbe1c1c146103eb578063f50ea1f314610414575b600080fd5b34156100e057600080fd5b6100e861043d565b60405180826000191660001916815260200191505060405180910390f35b341561011157600080fd5b610119610443565b6040518082815260200191505060405180910390f35b341561013a57600080fd5b610142610449565b604051808273ffffffffffffffffffffffffffffffffffffffff1673ffffffffffffffffffffffffffffffffffffffff16815260200191505060405180910390f35b341561018f57600080fd5b6101c4600480803573ffffffffffffffffffffffffffffffffffffffff1690602001909190803590602001909190505061046f565b604051808215151515815260200191505060405180910390f35b34156101e957600080fd5b61021e600480803573ffffffffffffffffffffffffffffffffffffffff169060200190919080359060200190919050506105cf565b6040518082815260200191505060405180910390f35b341561023f57600080fd5b610274600480803573ffffffffffffffffffffffffffffffffffffffff1690602001909190803590602001909190505061062a565b6040518083600019166000191681526020018281526020019250505060405180910390f35b34156102a457600080fd5b6102ac61068c565b6040518082815260200191505060405180910390f35b34156102cd57600080fd5b6102f9600480803573ffffffffffffffffffffffffffffffffffffffff16906020019091905050610692565b6040518082815260200191505060405180910390f35b61032560048080359060200190919050506106db565b005b341561033257600080fd5b61033a6108e5565b6040518082815260200191505060405180910390f35b341561035b57600080fd5b6103636108eb565b6040518082815260200191505060405180910390f35b341561038457600080fd5b61039a60048080359060200190919050506108f1565b604051808373ffffffffffffffffffffffffffffffffffffffff1673ffffffffffffffffffffffffffffffffffffffff16815260200182600019166000191681526020019250505060405180910390f35b34156103f657600080fd5b6103fe610934565b6040518082815260200191505060405180910390f35b341561041f57600080fd5b61042761093a565b6040518082815260200191505060405180910390f35b60075481565b60065481565b600560009054906101000a900473ffffffffffffffffffffffffffffffffffffffff1681565b600060045442118015610483575060035442105b151561048e57600080fd5b6000600b60008573ffffffffffffffffffffffffffffffffffffffff1673ffffffffffffffffffffffffffffffffffffffff168152602001908152602001600020541115156104dc57600080fd5b60011515600a600084815260200190815260200160002060009054906101000a900460ff16151514156105c4576001600b60008573ffffffffffffffffffffffffffffffffffffffff1673ffffffffffffffffffffffffffffffffffffffff1681526020019081526020016000205403600b60008573ffffffffffffffffffffffffffffffffffffffff1673ffffffffffffffffffffffffffffffffffffffff168152602001908152602001600020819055506000600a600084815260200190815260200160002060006101000a81548160ff021916908315150217905550600190506105c9565b600090505b92915050565b6000600960008473ffffffffffffffffffffffffffffffffffffffff1673ffffffffffffffffffffffffffffffffffffffff168152602001908152602001600020600083815260200190815260200160002054905092915050565b600080600754600960008673ffffffffffffffffffffffffffffffffffffffff1673ffffffffffffffffffffffffffffffffffffffff168152602001908152602001600020600085815260200190815260200160002054915091509250929050565b60005481565b6000600b60008373ffffffffffffffffffffffffffffffffffffffff1673ffffffffffffffffffffffffffffffffffffffff168152602001908152602001600020549050919050565b6000600154421180156106ef575060025442105b15156106fa57600080fd5b816000541015151561070b57600080fd5b6006548202341015151561071e57600080fd5b600090505b8181101561085c5733600860008054815260200190815260200160002060006101000a81548173ffffffffffffffffffffffffffffffffffffffff021916908373ffffffffffffffffffffffffffffffffffffffff1602179055506001600a60008054815260200190815260200160002060006101000a81548160ff021916908315150217905550600054600960003373ffffffffffffffffffffffffffffffffffffffff1673ffffffffffffffffffffffffffffffffffffffff1681526020019081526020016000206000600b60003373ffffffffffffffffffffffffffffffffffffffff1673ffffffffffffffffffffffffffffffffffffffff1681526020019081526020016000205484018152602001908152602001600020819055506001600054036000819055508080600101915050610723565b81600b60003373ffffffffffffffffffffffffffffffffffffffff1673ffffffffffffffffffffffffffffffffffffffff1681526020019081526020016000205401600b60003373ffffffffffffffffffffffffffffffffffffffff1673ffffffffffffffffffffffffffffffffffffffff168152602001908152602001600020819055505050565b60045481565b60015481565b6000806008600084815260200190815260200160002060009054906101000a900473ffffffffffffffffffffffffffffffffffffffff1660075491509150915091565b60025481565b600354815600a165627a7a723058205bbc222d9a035078c06a42257c5956443b28ddeea6ab2e10172f32ec1c8ceb150029",
  "source": "\ncontract SimpleTicket{\n\nuint  public available;\nuint  public  start;\nuint  public  end;\nuint public  redeemby;\nuint public  redeemstart;\naddress public Creator;\nuint   public cost;\nbytes32 public hash;\n\nmapping (uint=>address ) private  keys;\nmapping (address=> mapping (uint =>uint) ) private  keyown;\nmapping  (uint=>bool) keyvalid;\nmapping (address=>uint) private  tickets;\n\n\nevent Printed(\nuint key,uint256 hash\n);\n\n\nfunction SimpleTicket(uint s,uint e,uint rs,uint rb,uint c,uint number){\n        redeemstart=now + rs*1 days;\n        redeemby=(now +rb*1 days);\n\t      start=now +s*1 days;\n        end=now +e*1 days;\n        cost=c;\n        Creator=msg.sender;\n        available=number;\n        hash=keccak256(block.difficulty, block.coinbase, now);\n\n\n}\n\n\n function  SendTicket (uint number) payable public{\n    require((now>start) && (now<end));\n    require(available>=number);\n    require(msg.value>=number*cost);\n   \n    \n    \n   \n      for(uint i=0;i<number;i++){\n        \n        keys[available]=msg.sender;\n        keyvalid[available]=true;\n        keyown[msg.sender][i+tickets[msg.sender]]=available;\n        available=available-1;\n      }\n     tickets[msg.sender]= tickets[msg.sender]+number;\n}\n\nfunction  redeem(address a,uint key) public returns (bool) {\n    require((now>redeemstart) && (now<redeemby));\n    require(tickets[a]>0); \n    \n\t if(keyvalid[key]==true){\n\t    tickets[a]=tickets[a]-1;\n      keyvalid[key]=false;\n\t   return true;\n\t}\n\telse{\n\t   return false;\n\t}\n}\nfunction printTT(address a,uint i) public  view returns (bytes32,uint  ){\n\n\n      \n       \n       return (hash,keyown[a][i]);\n       \n        \n        \n        \n      \n}\n\nfunction listKey(address user, uint i) public view returns(uint key){\n  return keyown[user][i];\n}\nfunction listTickets(address user) public view returns(uint n){\n  return tickets[user];\n}\nfunction listowner(uint key) public view returns (address , bytes32){\n  return (keys[key],hash);\n\n}\n}",
  "sourcePath": "/home/jjj/Solidity_Tests/TicketTest/contracts/SimpleTicket.sol",
  "compiler": {
    "name": "solc",
    "version": "0.4.18+commit.9cf6e910.Emscripten.clang"
  },
  "schemaVersion": "1.0.1",
  "updatedAt": "2017-12-28T00:36:59.591Z"
}